{
    "_format": "hh-sol-artifact-1",
    "contractName": "donations",
    "sourceName": "contracts/donations.sol",
    "abi": [
        {
            "inputs": [],
            "name": "DonationDeadLineReached",
            "type": "error"
        },
        {
            "inputs": [],
            "name": "MaxFundsReached",
            "type": "error"
        },
        {
            "anonymous": false,
            "inputs": [
                {
                    "indexed": true,
                    "internalType": "address",
                    "name": "donor",
                    "type": "address"
                },
                {
                    "indexed": true,
                    "internalType": "uint256",
                    "name": "amount",
                    "type": "uint256"
                }
            ],
            "name": "AmountDonatedsuccesfull",
            "type": "event"
        },
        {
            "inputs": [
                {
                    "internalType": "address",
                    "name": "_localHead",
                    "type": "address"
                },
                {
                    "internalType": "string",
                    "name": "_regionName",
                    "type": "string"
                },
                {
                    "internalType": "string",
                    "name": "_decription",
                    "type": "string"
                },
                {
                    "internalType": "uint256",
                    "name": "_targetFunds",
                    "type": "uint256"
                },
                {
                    "internalType": "uint256",
                    "name": "_deadline",
                    "type": "uint256"
                },
                {
                    "internalType": "string",
                    "name": "_imageUrl",
                    "type": "string"
                }
            ],
            "name": "createCampaign",
            "outputs": [],
            "stateMutability": "nonpayable",
            "type": "function"
        },
        {
            "inputs": [
                {
                    "internalType": "uint256",
                    "name": "_id",
                    "type": "uint256"
                }
            ],
            "name": "donateToBenificiary",
            "outputs": [],
            "stateMutability": "payable",
            "type": "function"
        },
        {
            "inputs": [],
            "name": "getAllCampaign",
            "outputs": [
                {
                    "components": [
                        {
                            "internalType": "address",
                            "name": "localHead",
                            "type": "address"
                        },
                        {
                            "internalType": "string",
                            "name": "regionName",
                            "type": "string"
                        },
                        {
                            "internalType": "string",
                            "name": "decription",
                            "type": "string"
                        },
                        {
                            "internalType": "uint256",
                            "name": "targetFunds",
                            "type": "uint256"
                        },
                        {
                            "internalType": "uint256",
                            "name": "presentFundsBalance",
                            "type": "uint256"
                        },
                        {
                            "internalType": "uint256",
                            "name": "deadline",
                            "type": "uint256"
                        },
                        {
                            "internalType": "string",
                            "name": "imageUrl",
                            "type": "string"
                        }
                    ],
                    "internalType": "struct donations.BenificiaryCampaign[]",
                    "name": "",
                    "type": "tuple[]"
                }
            ],
            "stateMutability": "view",
            "type": "function"
        },
        {
            "inputs": [
                {
                    "internalType": "uint256",
                    "name": "_id",
                    "type": "uint256"
                }
            ],
            "name": "getDonators",
            "outputs": [
                {
                    "internalType": "address[]",
                    "name": "",
                    "type": "address[]"
                }
            ],
            "stateMutability": "view",
            "type": "function"
        }
    ],
    "bytecode": "0x60806040526000805534801561001457600080fd5b506110e2806100246000396000f3fe60806040526004361061003f5760003560e01c80630fa91fa9146100445780634ca079f2146100815780639943e3a1146100ac578063b8dc5c26146100d5575b600080fd5b34801561005057600080fd5b5061006b60048036038101906100669190610a82565b6100f1565b6040516100789190610ce7565b60405180910390f35b34801561008d57600080fd5b50610096610192565b6040516100a39190610d09565b60405180910390f35b3480156100b857600080fd5b506100d360048036038101906100ce91906109a1565b610481565b005b6100ef60048036038101906100ea9190610a82565b6105c3565b005b60606002600083815260200190815260200160002080548060200260200160405190810160405280929190818152602001828054801561018657602002820191906000526020600020905b8160009054906101000a900473ffffffffffffffffffffffffffffffffffffffff1673ffffffffffffffffffffffffffffffffffffffff168152602001906001019080831161013c575b50505050509050919050565b60606000805467ffffffffffffffff8111156101b1576101b0611027565b5b6040519080825280602002602001820160405280156101ea57816020015b6101d7610811565b8152602001906001900390816101cf5790505b50905060005b600054811015610479576000600160008381526020019081526020016000209050806040518060e00160405290816000820160009054906101000a900473ffffffffffffffffffffffffffffffffffffffff1673ffffffffffffffffffffffffffffffffffffffff1673ffffffffffffffffffffffffffffffffffffffff16815260200160018201805461028390610eee565b80601f01602080910402602001604051908101604052809291908181526020018280546102af90610eee565b80156102fc5780601f106102d1576101008083540402835291602001916102fc565b820191906000526020600020905b8154815290600101906020018083116102df57829003601f168201915b5050505050815260200160028201805461031590610eee565b80601f016020809104026020016040519081016040528092919081815260200182805461034190610eee565b801561038e5780601f106103635761010080835404028352916020019161038e565b820191906000526020600020905b81548152906001019060200180831161037157829003601f168201915b505050505081526020016003820154815260200160048201548152602001600582015481526020016006820180546103c590610eee565b80601f01602080910402602001604051908101604052809291908181526020018280546103f190610eee565b801561043e5780601f106104135761010080835404028352916020019161043e565b820191906000526020600020905b81548152906001019060200180831161042157829003601f168201915b50505050508152505083838151811061045a57610459610ff8565b5b602002602001018190525050808061047190610f51565b9150506101f0565b508091505090565b60006040518060e001604052808873ffffffffffffffffffffffffffffffffffffffff1681526020018781526020018681526020018581526020016000815260200184815260200183815250905080600160008054815260200190815260200160002060008201518160000160006101000a81548173ffffffffffffffffffffffffffffffffffffffff021916908373ffffffffffffffffffffffffffffffffffffffff1602179055506020820151816001019080519060200190610547929190610864565b506040820151816002019080519060200190610564929190610864565b50606082015181600301556080820151816004015560a0820151816005015560c082015181600601908051906020019061059f929190610864565b509050506000808154809291906105b590610f51565b919050555050505050505050565b6001600082815260200190815260200160002060050154421115610613576040517fff602a7400000000000000000000000000000000000000000000000000000000815260040160405180910390fd5b600160008281526020019081526020016000206003015460016000838152602001908152602001600020600401541115610679576040517f78b61e7a00000000000000000000000000000000000000000000000000000000815260040160405180910390fd5b6000349050806001600084815260200190815260200160002060040160008282546106a49190610e1a565b9250508190555060026000838152602001908152602001600020339080600181540180825580915050600190039060005260206000200160009091909190916101000a81548173ffffffffffffffffffffffffffffffffffffffff021916908373ffffffffffffffffffffffffffffffffffffffff16021790555060006001600084815260200190815260200160002060000160009054906101000a900473ffffffffffffffffffffffffffffffffffffffff1673ffffffffffffffffffffffffffffffffffffffff168260405161077b90610cd2565b60006040518083038185875af1925050503d80600081146107b8576040519150601f19603f3d011682016040523d82523d6000602084013e6107bd565b606091505b50509050801561080c57813373ffffffffffffffffffffffffffffffffffffffff167f8e0c2dac70c13e694aa4d87ca9cec89ee12669945dc5976591452c25a278e6da60405160405180910390a35b505050565b6040518060e00160405280600073ffffffffffffffffffffffffffffffffffffffff1681526020016060815260200160608152602001600081526020016000815260200160008152602001606081525090565b82805461087090610eee565b90600052602060002090601f01602090048101928261089257600085556108d9565b82601f106108ab57805160ff19168380011785556108d9565b828001600101855582156108d9579182015b828111156108d85782518255916020019190600101906108bd565b5b5090506108e691906108ea565b5090565b5b808211156109035760008160009055506001016108eb565b5090565b600061091a61091584610d50565b610d2b565b9050828152602081018484840111156109365761093561105b565b5b610941848285610eac565b509392505050565b6000813590506109588161107e565b92915050565b600082601f83011261097357610972611056565b5b8135610983848260208601610907565b91505092915050565b60008135905061099b81611095565b92915050565b60008060008060008060c087890312156109be576109bd611065565b5b60006109cc89828a01610949565b965050602087013567ffffffffffffffff8111156109ed576109ec611060565b5b6109f989828a0161095e565b955050604087013567ffffffffffffffff811115610a1a57610a19611060565b5b610a2689828a0161095e565b9450506060610a3789828a0161098c565b9350506080610a4889828a0161098c565b92505060a087013567ffffffffffffffff811115610a6957610a68611060565b5b610a7589828a0161095e565b9150509295509295509295565b600060208284031215610a9857610a97611065565b5b6000610aa68482850161098c565b91505092915050565b6000610abb8383610adb565b60208301905092915050565b6000610ad38383610c19565b905092915050565b610ae481610e70565b82525050565b6000610af582610da1565b610aff8185610ddc565b9350610b0a83610d81565b8060005b83811015610b3b578151610b228882610aaf565b9750610b2d83610dc2565b925050600181019050610b0e565b5085935050505092915050565b6000610b5382610dac565b610b5d8185610ded565b935083602082028501610b6f85610d91565b8060005b85811015610bab5784840389528151610b8c8582610ac7565b9450610b9783610dcf565b925060208a01995050600181019050610b73565b50829750879550505050505092915050565b6000610bc882610db7565b610bd28185610e09565b9350610be2818560208601610ebb565b610beb8161106a565b840191505092915050565b6000610c03600083610dfe565b9150610c0e8261107b565b600082019050919050565b600060e083016000830151610c316000860182610adb565b5060208301518482036020860152610c498282610bbd565b91505060408301518482036040860152610c638282610bbd565b9150506060830151610c786060860182610cc3565b506080830151610c8b6080860182610cc3565b5060a0830151610c9e60a0860182610cc3565b5060c083015184820360c0860152610cb68282610bbd565b9150508091505092915050565b610ccc81610ea2565b82525050565b6000610cdd82610bf6565b9150819050919050565b60006020820190508181036000830152610d018184610aea565b905092915050565b60006020820190508181036000830152610d238184610b48565b905092915050565b6000610d35610d46565b9050610d418282610f20565b919050565b6000604051905090565b600067ffffffffffffffff821115610d6b57610d6a611027565b5b610d748261106a565b9050602081019050919050565b6000819050602082019050919050565b6000819050602082019050919050565b600081519050919050565b600081519050919050565b600081519050919050565b6000602082019050919050565b6000602082019050919050565b600082825260208201905092915050565b600082825260208201905092915050565b600081905092915050565b600082825260208201905092915050565b6000610e2582610ea2565b9150610e3083610ea2565b9250827fffffffffffffffffffffffffffffffffffffffffffffffffffffffffffffffff03821115610e6557610e64610f9a565b5b828201905092915050565b6000610e7b82610e82565b9050919050565b600073ffffffffffffffffffffffffffffffffffffffff82169050919050565b6000819050919050565b82818337600083830152505050565b60005b83811015610ed9578082015181840152602081019050610ebe565b83811115610ee8576000848401525b50505050565b60006002820490506001821680610f0657607f821691505b60208210811415610f1a57610f19610fc9565b5b50919050565b610f298261106a565b810181811067ffffffffffffffff82111715610f4857610f47611027565b5b80604052505050565b6000610f5c82610ea2565b91507fffffffffffffffffffffffffffffffffffffffffffffffffffffffffffffffff821415610f8f57610f8e610f9a565b5b600182019050919050565b7f4e487b7100000000000000000000000000000000000000000000000000000000600052601160045260246000fd5b7f4e487b7100000000000000000000000000000000000000000000000000000000600052602260045260246000fd5b7f4e487b7100000000000000000000000000000000000000000000000000000000600052603260045260246000fd5b7f4e487b7100000000000000000000000000000000000000000000000000000000600052604160045260246000fd5b600080fd5b600080fd5b600080fd5b600080fd5b6000601f19601f8301169050919050565b50565b61108781610e70565b811461109257600080fd5b50565b61109e81610ea2565b81146110a957600080fd5b5056fea2646970667358221220bf748226ba6c2633e69af1c2839d6b715b193f965dd29391cb186a2af7f8c55964736f6c63430008070033",
    "linkReferences": {},
    "deployedLinkReferences": {}
}